{
  "_format": "hh-sol-artifact-1",
  "contractName": "FewTokenDeployer",
  "sourceName": "contracts/FewTokenDeployer.sol",
  "abi": [
    {
      "inputs": [],
      "name": "parameter",
      "outputs": [
        {
          "internalType": "address",
          "name": "",
          "type": "address"
        }
      ],
      "stateMutability": "view",
      "type": "function"
    }
  ],
  "bytecode": "0x6080604052348015600f57600080fd5b5060858061001e6000396000f3fe6080604052348015600f57600080fd5b506004361060285760003560e01c8063ad4d4e2914602d575b600080fd5b6033605c565b6040805173ffffffffffffffffffffffffffffffffffffffff9092168252519081900360200190f35b60005473ffffffffffffffffffffffffffffffffffffffff168156fea164736f6c6343000706000a",
  "linkReferences": {},
  "deployedLinkReferences": {}
}