{
  "_format": "hh-sol-artifact-1",
  "contractName": "FewWrappedToken",
  "sourceName": "contracts/token/FewWrappedToken.sol",
  "abi": [
    {
      "inputs": [],
      "stateMutability": "nonpayable",
      "type": "constructor"
    },
    {
      "anonymous": false,
      "inputs": [
        {
          "indexed": true,
          "internalType": "address",
          "name": "owner",
          "type": "address"
        },
        {
          "indexed": true,
          "internalType": "address",
          "name": "spender",
          "type": "address"
        },
        {
          "indexed": false,
          "internalType": "uint256",
          "name": "value",
          "type": "uint256"
        }
      ],
      "name": "Approval",
      "type": "event"
    },
    {
      "anonymous": false,
      "inputs": [
        {
          "indexed": true,
          "internalType": "address",
          "name": "to",
          "type": "address"
        },
        {
          "indexed": true,
          "internalType": "address",
          "name": "burner",
          "type": "address"
        },
        {
          "indexed": false,
          "internalType": "uint256",
          "name": "amount",
          "type": "uint256"
        }
      ],
      "name": "Burning",
      "type": "event"
    },
    {
      "anonymous": false,
      "inputs": [
        {
          "indexed": true,
          "internalType": "address",
          "name": "to",
          "type": "address"
        },
        {
          "indexed": true,
          "internalType": "address",
          "name": "minter",
          "type": "address"
        },
        {
          "indexed": false,
          "internalType": "uint256",
          "name": "amount",
          "type": "uint256"
        }
      ],
      "name": "Minting",
      "type": "event"
    },
    {
      "anonymous": false,
      "inputs": [
        {
          "indexed": true,
          "internalType": "address",
          "name": "from",
          "type": "address"
        },
        {
          "indexed": true,
          "internalType": "address",
          "name": "to",
          "type": "address"
        },
        {
          "indexed": false,
          "internalType": "uint256",
          "name": "value",
          "type": "uint256"
        }
      ],
      "name": "Transfer",
      "type": "event"
    },
    {
      "anonymous": false,
      "inputs": [
        {
          "indexed": true,
          "internalType": "address",
          "name": "sender",
          "type": "address"
        },
        {
          "indexed": false,
          "internalType": "uint256",
          "name": "amount",
          "type": "uint256"
        }
      ],
      "name": "Unwrap",
      "type": "event"
    },
    {
      "anonymous": false,
      "inputs": [
        {
          "indexed": true,
          "internalType": "address",
          "name": "sender",
          "type": "address"
        },
        {
          "indexed": false,
          "internalType": "uint256",
          "name": "amount",
          "type": "uint256"
        }
      ],
      "name": "Wrap",
      "type": "event"
    },
    {
      "inputs": [],
      "name": "DOMAIN_SEPARATOR",
      "outputs": [
        {
          "internalType": "bytes32",
          "name": "",
          "type": "bytes32"
        }
      ],
      "stateMutability": "view",
      "type": "function"
    },
    {
      "inputs": [],
      "name": "PERMIT_TYPEHASH",
      "outputs": [
        {
          "internalType": "bytes32",
          "name": "",
          "type": "bytes32"
        }
      ],
      "stateMutability": "view",
      "type": "function"
    },
    {
      "inputs": [
        {
          "internalType": "address",
          "name": "",
          "type": "address"
        },
        {
          "internalType": "address",
          "name": "",
          "type": "address"
        }
      ],
      "name": "allowance",
      "outputs": [
        {
          "internalType": "uint256",
          "name": "",
          "type": "uint256"
        }
      ],
      "stateMutability": "view",
      "type": "function"
    },
    {
      "inputs": [
        {
          "internalType": "address",
          "name": "spender",
          "type": "address"
        },
        {
          "internalType": "uint256",
          "name": "value",
          "type": "uint256"
        }
      ],
      "name": "approve",
      "outputs": [
        {
          "internalType": "bool",
          "name": "",
          "type": "bool"
        }
      ],
      "stateMutability": "nonpayable",
      "type": "function"
    },
    {
      "inputs": [
        {
          "internalType": "address",
          "name": "",
          "type": "address"
        }
      ],
      "name": "balanceOf",
      "outputs": [
        {
          "internalType": "uint256",
          "name": "",
          "type": "uint256"
        }
      ],
      "stateMutability": "view",
      "type": "function"
    },
    {
      "inputs": [
        {
          "internalType": "uint256",
          "name": "amount",
          "type": "uint256"
        }
      ],
      "name": "burn",
      "outputs": [],
      "stateMutability": "nonpayable",
      "type": "function"
    },
    {
      "inputs": [
        {
          "internalType": "address",
          "name": "account",
          "type": "address"
        },
        {
          "internalType": "uint256",
          "name": "amount",
          "type": "uint256"
        }
      ],
      "name": "burnFrom",
      "outputs": [],
      "stateMutability": "nonpayable",
      "type": "function"
    },
    {
      "inputs": [],
      "name": "decimals",
      "outputs": [
        {
          "internalType": "uint8",
          "name": "",
          "type": "uint8"
        }
      ],
      "stateMutability": "view",
      "type": "function"
    },
    {
      "inputs": [],
      "name": "factory",
      "outputs": [
        {
          "internalType": "address",
          "name": "",
          "type": "address"
        }
      ],
      "stateMutability": "view",
      "type": "function"
    },
    {
      "inputs": [
        {
          "internalType": "address",
          "name": "account",
          "type": "address"
        },
        {
          "internalType": "uint256",
          "name": "amount",
          "type": "uint256"
        }
      ],
      "name": "mint",
      "outputs": [],
      "stateMutability": "nonpayable",
      "type": "function"
    },
    {
      "inputs": [],
      "name": "name",
      "outputs": [
        {
          "internalType": "string",
          "name": "",
          "type": "string"
        }
      ],
      "stateMutability": "view",
      "type": "function"
    },
    {
      "inputs": [
        {
          "internalType": "address",
          "name": "",
          "type": "address"
        }
      ],
      "name": "nonces",
      "outputs": [
        {
          "internalType": "uint256",
          "name": "",
          "type": "uint256"
        }
      ],
      "stateMutability": "view",
      "type": "function"
    },
    {
      "inputs": [
        {
          "internalType": "address",
          "name": "owner",
          "type": "address"
        },
        {
          "internalType": "address",
          "name": "spender",
          "type": "address"
        },
        {
          "internalType": "uint256",
          "name": "value",
          "type": "uint256"
        },
        {
          "internalType": "uint256",
          "name": "deadline",
          "type": "uint256"
        },
        {
          "internalType": "uint8",
          "name": "v",
          "type": "uint8"
        },
        {
          "internalType": "bytes32",
          "name": "r",
          "type": "bytes32"
        },
        {
          "internalType": "bytes32",
          "name": "s",
          "type": "bytes32"
        }
      ],
      "name": "permit",
      "outputs": [],
      "stateMutability": "nonpayable",
      "type": "function"
    },
    {
      "inputs": [],
      "name": "symbol",
      "outputs": [
        {
          "internalType": "string",
          "name": "",
          "type": "string"
        }
      ],
      "stateMutability": "view",
      "type": "function"
    },
    {
      "inputs": [],
      "name": "token",
      "outputs": [
        {
          "internalType": "contract IERC20",
          "name": "",
          "type": "address"
        }
      ],
      "stateMutability": "view",
      "type": "function"
    },
    {
      "inputs": [],
      "name": "totalSupply",
      "outputs": [
        {
          "internalType": "uint256",
          "name": "",
          "type": "uint256"
        }
      ],
      "stateMutability": "view",
      "type": "function"
    },
    {
      "inputs": [
        {
          "internalType": "address",
          "name": "to",
          "type": "address"
        },
        {
          "internalType": "uint256",
          "name": "value",
          "type": "uint256"
        }
      ],
      "name": "transfer",
      "outputs": [
        {
          "internalType": "bool",
          "name": "",
          "type": "bool"
        }
      ],
      "stateMutability": "nonpayable",
      "type": "function"
    },
    {
      "inputs": [
        {
          "internalType": "address",
          "name": "from",
          "type": "address"
        },
        {
          "internalType": "address",
          "name": "to",
          "type": "address"
        },
        {
          "internalType": "uint256",
          "name": "value",
          "type": "uint256"
        }
      ],
      "name": "transferFrom",
      "outputs": [
        {
          "internalType": "bool",
          "name": "",
          "type": "bool"
        }
      ],
      "stateMutability": "nonpayable",
      "type": "function"
    },
    {
      "inputs": [
        {
          "internalType": "uint256",
          "name": "amount",
          "type": "uint256"
        }
      ],
      "name": "unwrap",
      "outputs": [
        {
          "internalType": "uint256",
          "name": "",
          "type": "uint256"
        }
      ],
      "stateMutability": "nonpayable",
      "type": "function"
    },
    {
      "inputs": [
        {
          "internalType": "uint256",
          "name": "amount",
          "type": "uint256"
        }
      ],
      "name": "wrap",
      "outputs": [
        {
          "internalType": "uint256",
          "name": "",
          "type": "uint256"
        }
      ],
      "stateMutability": "nonpayable",
      "type": "function"
    }
  ],
  "bytecode": "0x60806040523480156200001157600080fd5b5060004690507f8b73c3c69bb8fe3d512ecc4cf759cc79239f7b179b0ffacaa9a75d522b39400f60006040518082805460018160011615610100020316600290048015620000995780601f106200007657610100808354040283529182019162000099565b820191906000526020600020905b81548152906001019060200180831162000084575b505060408051918290038220828201825260018352603160f81b602093840152815180840196909652858201527fc89efdaa54c0f20c7adf612882df0950f5a951637e0307cdcb4c672f298b8bc66060860152608085018690523060a0808701919091528151808703909101815260c08601808352815191840191909120600555600780546001600160a01b0319163390811790915563ad4d4e2960e01b909152905160009591945063ad4d4e29935060c48083019392829003018186803b1580156200016557600080fd5b505afa1580156200017a573d6000803e3d6000fd5b505050506040513d60208110156200019157600080fd5b5051600880546001600160a01b0319166001600160a01b038084169190911791829055604080516306fdde0360e01b815290519394509116916306fdde0391600480820192600092909190829003018186803b158015620001f157600080fd5b505afa15801562000206573d6000803e3d6000fd5b505050506040513d6000823e601f3d908101601f1916820160405260208110156200023057600080fd5b81019080805160405193929190846401000000008211156200025157600080fd5b9083019060208201858111156200026757600080fd5b82516401000000008111828201881017156200028257600080fd5b82525081516020918201929091019080838360005b83811015620002b157818101518382015260200162000297565b50505050905090810190601f168015620002df5780820380516001836020036101000a031916815260200191505b5060405250508151620002fa9260009250602001906200059e565b50600060405160200180806b02332bb902bb930b83832b2160a51b815250600c0182805460018160011615610100020316600290048015620003765780601f106200035357610100808354040283529182019162000376565b820191906000526020600020905b81548152906001019060200180831162000361575b505060408051601f198184030181529190528051620003a09350600092506020909101906200059e565b50600860009054906101000a90046001600160a01b03166001600160a01b03166395d89b416040518163ffffffff1660e01b815260040160006040518083038186803b158015620003f057600080fd5b505afa15801562000405573d6000803e3d6000fd5b505050506040513d6000823e601f3d908101601f1916820160405260208110156200042f57600080fd5b81019080805160405193929190846401000000008211156200045057600080fd5b9083019060208201858111156200046657600080fd5b82516401000000008111828201881017156200048157600080fd5b82525081516020918201929091019080838360005b83811015620004b057818101518382015260200162000496565b50505050905090810190601f168015620004de5780820380516001836020036101000a031916815260200191505b5060405250508151620004f99260019250602001906200059e565b506001604051602001808061667760f01b815250600201828054600181600116156101000203166002900480156200056b5780601f10620005485761010080835404028352918201916200056b565b820191906000526020600020905b81548152906001019060200180831162000556575b505060408051601f198184030181529190528051620005959350600192506020909101906200059e565b5050506200064a565b828054600181600116156101000203166002900490600052602060002090601f016020900481019282620005d6576000855562000621565b82601f10620005f157805160ff191683800117855562000621565b8280016001018555821562000621579182015b828111156200062157825182559160200191906001019062000604565b506200062f92915062000633565b5090565b5b808211156200062f576000815560010162000634565b6112ef806200065a6000396000f3fe608060405234801561001057600080fd5b506004361061016c5760003560e01c806379cc6790116100cd578063d505accf11610081578063de0e9a3e11610066578063de0e9a3e14610446578063ea598cb014610463578063fc0c546a146104805761016c565b8063d505accf146103c7578063dd62ed3e146104185761016c565b806395d89b41116100b257806395d89b411461036f578063a9059cbb14610377578063c45a0155146103a35761016c565b806379cc67901461031d5780637ecebe00146103495761016c565b8063313ce5671161012457806340c10f191161010957806340c10f19146102ac57806342966c68146102da57806370a08231146102f75761016c565b8063313ce567146102865780633644e515146102a45761016c565b806318160ddd1161015557806318160ddd1461022e57806323b872dd1461024857806330adf81f1461027e5761016c565b806306fdde0314610171578063095ea7b3146101ee575b600080fd5b610179610488565b6040805160208082528351818301528351919283929083019185019080838360005b838110156101b357818101518382015260200161019b565b50505050905090810190601f1680156101e05780820380516001836020036101000a031916815260200191505b509250505060405180910390f35b61021a6004803603604081101561020457600080fd5b506001600160a01b038135169060200135610516565b604080519115158252519081900360200190f35b61023661052d565b60408051918252519081900360200190f35b61021a6004803603606081101561025e57600080fd5b506001600160a01b03813581169160208101359091169060400135610533565b6102366105c7565b61028e6105eb565b6040805160ff9092168252519081900360200190f35b6102366105f0565b6102d8600480360360408110156102c257600080fd5b506001600160a01b0381351690602001356105f6565b005b6102d8600480360360208110156102f057600080fd5b503561084f565b6102366004803603602081101561030d57600080fd5b50356001600160a01b0316610893565b6102d86004803603604081101561033357600080fd5b506001600160a01b0381351690602001356108a5565b6102366004803603602081101561035f57600080fd5b50356001600160a01b0316610afe565b610179610b10565b61021a6004803603604081101561038d57600080fd5b506001600160a01b038135169060200135610b6a565b6103ab610b77565b604080516001600160a01b039092168252519081900360200190f35b6102d8600480360360e08110156103dd57600080fd5b506001600160a01b03813581169160208101359091169060408101359060608101359060ff6080820135169060a08101359060c00135610b86565b6102366004803603604081101561042e57600080fd5b506001600160a01b0381358116916020013516610d93565b6102366004803603602081101561045c57600080fd5b5035610db0565b6102366004803603602081101561047957600080fd5b5035610eb4565b6103ab610fd4565b6000805460408051602060026001851615610100026000190190941693909304601f8101849004840282018401909252818152929183018282801561050e5780601f106104e35761010080835404028352916020019161050e565b820191906000526020600020905b8154815290600101906020018083116104f157829003601f168201915b505050505081565b6000610523338484610fe3565b5060015b92915050565b60025481565b6001600160a01b0383166000908152600460209081526040808320338452909152812054600019146105b2576001600160a01b038416600090815260046020908152604080832033845290915290205461058d9083611045565b6001600160a01b03851660009081526004602090815260408083203384529091529020555b6105bd84848461109d565b5060019392505050565b7f6e71edae12b1b97f4d1f60370fef10105fa2faae0126114a169c64845d6126c981565b601281565b60055481565b600760009054906101000a90046001600160a01b03166001600160a01b031663f2f4eb266040518163ffffffff1660e01b815260040160206040518083038186803b15801561064457600080fd5b505afa158015610658573d6000803e3d6000fd5b505050506040513d602081101561066e57600080fd5b5051604080516355138f0d60e11b815233600482015290516001600160a01b039092169163aa271e1a91602480820192602092909190829003018186803b1580156106b857600080fd5b505afa1580156106cc573d6000803e3d6000fd5b505050506040513d60208110156106e257600080fd5b5051610735576040805162461bcd60e51b815260206004820152601f60248201527f436f72655265663a2043616c6c6572206973206e6f742061206d696e74657200604482015290519081900360640190fd5b600760009054906101000a90046001600160a01b03166001600160a01b0316635c975abb6040518163ffffffff1660e01b815260040160206040518083038186803b15801561078357600080fd5b505afa158015610797573d6000803e3d6000fd5b505050506040513d60208110156107ad57600080fd5b505115610801576040805162461bcd60e51b815260206004820152601960248201527f436f72655265663a2043616c6c65722069732070617573656400000000000000604482015290519081900360640190fd5b61080b828261114b565b60408051828152905133916001600160a01b038516917fb1233017d63154bc561d57c16f7b6a55e2e1acd7fcac94045a9f35fb31a850ca9181900360200190a35050565b61085933826111d6565b604080518281529051339182917f227fb4b3aae8331f21af5167739c291fefe3afd3c2e08cea44f499e564f486ef9181900360200190a350565b60036020526000908152604090205481565b600760009054906101000a90046001600160a01b03166001600160a01b031663f2f4eb266040518163ffffffff1660e01b815260040160206040518083038186803b1580156108f357600080fd5b505afa158015610907573d6000803e3d6000fd5b505050506040513d602081101561091d57600080fd5b50516040805163219a30a560e11b815233600482015290516001600160a01b0390921691634334614a91602480820192602092909190829003018186803b15801561096757600080fd5b505afa15801561097b573d6000803e3d6000fd5b505050506040513d602081101561099157600080fd5b50516109e4576040805162461bcd60e51b815260206004820152601f60248201527f436f72655265663a2043616c6c6572206973206e6f742061206275726e657200604482015290519081900360640190fd5b600760009054906101000a90046001600160a01b03166001600160a01b0316635c975abb6040518163ffffffff1660e01b815260040160206040518083038186803b158015610a3257600080fd5b505afa158015610a46573d6000803e3d6000fd5b505050506040513d6020811015610a5c57600080fd5b505115610ab0576040805162461bcd60e51b815260206004820152601960248201527f436f72655265663a2043616c6c65722069732070617573656400000000000000604482015290519081900360640190fd5b610aba82826111d6565b60408051828152905133916001600160a01b038516917f227fb4b3aae8331f21af5167739c291fefe3afd3c2e08cea44f499e564f486ef9181900360200190a35050565b60066020526000908152604090205481565b60018054604080516020600284861615610100026000190190941693909304601f8101849004840282018401909252818152929183018282801561050e5780601f106104e35761010080835404028352916020019161050e565b600061052333848461109d565b6007546001600160a01b031681565b42841015610bdb576040805162461bcd60e51b815260206004820152601260248201527f556e697377617056323a20455850495245440000000000000000000000000000604482015290519081900360640190fd5b6005546001600160a01b0380891660008181526006602090815260408083208054600180820190925582517f6e71edae12b1b97f4d1f60370fef10105fa2faae0126114a169c64845d6126c98186015280840196909652958d166060860152608085018c905260a085019590955260c08085018b90528151808603909101815260e08501825280519083012061190160f01b6101008601526101028501969096526101228085019690965280518085039096018652610142840180825286519683019690962095839052610162840180825286905260ff89166101828501526101a284018890526101c28401879052519193926101e280820193601f1981019281900390910190855afa158015610cf6573d6000803e3d6000fd5b5050604051601f1901519150506001600160a01b03811615801590610d2c5750886001600160a01b0316816001600160a01b0316145b610d7d576040805162461bcd60e51b815260206004820152601c60248201527f556e697377617056323a20494e56414c49445f5349474e415455524500000000604482015290519081900360640190fd5b610d88898989610fe3565b505050505050505050565b600460209081526000928352604080842090915290825290205481565b6000808211610df05760405162461bcd60e51b81526004018080602001828103825260238152602001806112c06023913960400191505060405180910390fd5b610dfa33836111d6565b6008546040805163a9059cbb60e01b81523360048201526024810185905290516001600160a01b039092169163a9059cbb916044808201926020929091908290030181600087803b158015610e4e57600080fd5b505af1158015610e62573d6000803e3d6000fd5b505050506040513d6020811015610e7857600080fd5b505060408051838152905133917f5dd085b6070b4cae004f84daafd199fd55b0bdfa11c3a802baffe89c2419d8c2919081900360200190a25090565b6000808211610f0a576040805162461bcd60e51b815260206004820152601a60248201527f4665693a2063616e27742077726170207a65726f20746f6b656e000000000000604482015290519081900360640190fd5b610f14338361114b565b600854604080516323b872dd60e01b81523360048201523060248201526044810185905290516001600160a01b03909216916323b872dd916064808201926020929091908290030181600087803b158015610f6e57600080fd5b505af1158015610f82573d6000803e3d6000fd5b505050506040513d6020811015610f9857600080fd5b505060408051838152905133917fb61d00fdfee32467c7d81db64c811ae60c104c346debf36a14afe84b8fce59e5919081900360200190a25090565b6008546001600160a01b031681565b6001600160a01b03808416600081815260046020908152604080832094871680845294825291829020859055815185815291517f8c5be1e5ebec7d5bd14f71427d1e84f3dd0314c0f7b2291e5b200ac8c7c3b9259281900390910190a3505050565b80820382811115610527576040805162461bcd60e51b815260206004820152601560248201527f64732d6d6174682d7375622d756e646572666c6f770000000000000000000000604482015290519081900360640190fd5b6001600160a01b0383166000908152600360205260409020546110c09082611045565b6001600160a01b0380851660009081526003602052604080822093909355908416815220546110ef9082611267565b6001600160a01b0380841660008181526003602090815260409182902094909455805185815290519193928716927fddf252ad1be2c89b69c2b068fc378daa952ba7f163c4a11628f55a4df523b3ef92918290030190a3505050565b6002546111589082611267565b6002556001600160a01b03821660009081526003602052604090205461117e9082611267565b6001600160a01b03831660008181526003602090815260408083209490945583518581529351929391927fddf252ad1be2c89b69c2b068fc378daa952ba7f163c4a11628f55a4df523b3ef9281900390910190a35050565b6001600160a01b0382166000908152600360205260409020546111f99082611045565b6001600160a01b03831660009081526003602052604090205560025461121f9082611045565b6002556040805182815290516000916001600160a01b038516917fddf252ad1be2c89b69c2b068fc378daa952ba7f163c4a11628f55a4df523b3ef9181900360200190a35050565b80820182811015610527576040805162461bcd60e51b815260206004820152601460248201527f64732d6d6174682d6164642d6f766572666c6f77000000000000000000000000604482015290519081900360640190fdfe4665693a207a65726f20616d6f756e7420756e77726170206e6f7420616c6c6f776564a164736f6c6343000706000a",
  "linkReferences": {},
  "deployedLinkReferences": {}
}