{
  "_format": "hh-sol-artifact-1",
  "contractName": "FewWrappedToken",
  "sourceName": "contracts/FewWrappedToken.sol",
  "abi": [
    {
      "inputs": [],
      "stateMutability": "nonpayable",
      "type": "constructor"
    },
    {
      "anonymous": false,
      "inputs": [
        {
          "indexed": true,
          "internalType": "address",
          "name": "owner",
          "type": "address"
        },
        {
          "indexed": true,
          "internalType": "address",
          "name": "spender",
          "type": "address"
        },
        {
          "indexed": false,
          "internalType": "uint256",
          "name": "value",
          "type": "uint256"
        }
      ],
      "name": "Approval",
      "type": "event"
    },
    {
      "anonymous": false,
      "inputs": [
        {
          "indexed": true,
          "internalType": "address",
          "name": "burner",
          "type": "address"
        },
        {
          "indexed": false,
          "internalType": "uint256",
          "name": "amount",
          "type": "uint256"
        },
        {
          "indexed": true,
          "internalType": "address",
          "name": "to",
          "type": "address"
        }
      ],
      "name": "Burn",
      "type": "event"
    },
    {
      "anonymous": false,
      "inputs": [
        {
          "indexed": true,
          "internalType": "address",
          "name": "minter",
          "type": "address"
        },
        {
          "indexed": false,
          "internalType": "uint256",
          "name": "amount",
          "type": "uint256"
        },
        {
          "indexed": true,
          "internalType": "address",
          "name": "to",
          "type": "address"
        }
      ],
      "name": "Mint",
      "type": "event"
    },
    {
      "anonymous": false,
      "inputs": [
        {
          "indexed": true,
          "internalType": "address",
          "name": "from",
          "type": "address"
        },
        {
          "indexed": true,
          "internalType": "address",
          "name": "to",
          "type": "address"
        },
        {
          "indexed": false,
          "internalType": "uint256",
          "name": "value",
          "type": "uint256"
        }
      ],
      "name": "Transfer",
      "type": "event"
    },
    {
      "anonymous": false,
      "inputs": [
        {
          "indexed": true,
          "internalType": "address",
          "name": "sender",
          "type": "address"
        },
        {
          "indexed": false,
          "internalType": "uint256",
          "name": "amount",
          "type": "uint256"
        },
        {
          "indexed": true,
          "internalType": "address",
          "name": "to",
          "type": "address"
        }
      ],
      "name": "Unwrap",
      "type": "event"
    },
    {
      "anonymous": false,
      "inputs": [
        {
          "indexed": true,
          "internalType": "address",
          "name": "sender",
          "type": "address"
        },
        {
          "indexed": false,
          "internalType": "uint256",
          "name": "amount",
          "type": "uint256"
        },
        {
          "indexed": true,
          "internalType": "address",
          "name": "to",
          "type": "address"
        }
      ],
      "name": "Wrap",
      "type": "event"
    },
    {
      "inputs": [],
      "name": "DOMAIN_SEPARATOR",
      "outputs": [
        {
          "internalType": "bytes32",
          "name": "",
          "type": "bytes32"
        }
      ],
      "stateMutability": "view",
      "type": "function"
    },
    {
      "inputs": [],
      "name": "PERMIT_TYPEHASH",
      "outputs": [
        {
          "internalType": "bytes32",
          "name": "",
          "type": "bytes32"
        }
      ],
      "stateMutability": "view",
      "type": "function"
    },
    {
      "inputs": [
        {
          "internalType": "address",
          "name": "",
          "type": "address"
        },
        {
          "internalType": "address",
          "name": "",
          "type": "address"
        }
      ],
      "name": "allowance",
      "outputs": [
        {
          "internalType": "uint256",
          "name": "",
          "type": "uint256"
        }
      ],
      "stateMutability": "view",
      "type": "function"
    },
    {
      "inputs": [
        {
          "internalType": "address",
          "name": "spender",
          "type": "address"
        },
        {
          "internalType": "uint256",
          "name": "value",
          "type": "uint256"
        }
      ],
      "name": "approve",
      "outputs": [
        {
          "internalType": "bool",
          "name": "",
          "type": "bool"
        }
      ],
      "stateMutability": "nonpayable",
      "type": "function"
    },
    {
      "inputs": [
        {
          "internalType": "address",
          "name": "",
          "type": "address"
        }
      ],
      "name": "balanceOf",
      "outputs": [
        {
          "internalType": "uint256",
          "name": "",
          "type": "uint256"
        }
      ],
      "stateMutability": "view",
      "type": "function"
    },
    {
      "inputs": [
        {
          "internalType": "uint256",
          "name": "amount",
          "type": "uint256"
        }
      ],
      "name": "burn",
      "outputs": [],
      "stateMutability": "nonpayable",
      "type": "function"
    },
    {
      "inputs": [
        {
          "internalType": "address",
          "name": "account",
          "type": "address"
        },
        {
          "internalType": "uint256",
          "name": "amount",
          "type": "uint256"
        }
      ],
      "name": "burnFrom",
      "outputs": [],
      "stateMutability": "nonpayable",
      "type": "function"
    },
    {
      "inputs": [],
      "name": "decimals",
      "outputs": [
        {
          "internalType": "uint8",
          "name": "",
          "type": "uint8"
        }
      ],
      "stateMutability": "view",
      "type": "function"
    },
    {
      "inputs": [],
      "name": "factory",
      "outputs": [
        {
          "internalType": "address",
          "name": "",
          "type": "address"
        }
      ],
      "stateMutability": "view",
      "type": "function"
    },
    {
      "inputs": [
        {
          "internalType": "address",
          "name": "account",
          "type": "address"
        },
        {
          "internalType": "uint256",
          "name": "amount",
          "type": "uint256"
        }
      ],
      "name": "mint",
      "outputs": [],
      "stateMutability": "nonpayable",
      "type": "function"
    },
    {
      "inputs": [],
      "name": "name",
      "outputs": [
        {
          "internalType": "string",
          "name": "",
          "type": "string"
        }
      ],
      "stateMutability": "view",
      "type": "function"
    },
    {
      "inputs": [
        {
          "internalType": "address",
          "name": "",
          "type": "address"
        }
      ],
      "name": "nonces",
      "outputs": [
        {
          "internalType": "uint256",
          "name": "",
          "type": "uint256"
        }
      ],
      "stateMutability": "view",
      "type": "function"
    },
    {
      "inputs": [
        {
          "internalType": "address",
          "name": "owner",
          "type": "address"
        },
        {
          "internalType": "address",
          "name": "spender",
          "type": "address"
        },
        {
          "internalType": "uint256",
          "name": "value",
          "type": "uint256"
        },
        {
          "internalType": "uint256",
          "name": "deadline",
          "type": "uint256"
        },
        {
          "internalType": "uint8",
          "name": "v",
          "type": "uint8"
        },
        {
          "internalType": "bytes32",
          "name": "r",
          "type": "bytes32"
        },
        {
          "internalType": "bytes32",
          "name": "s",
          "type": "bytes32"
        }
      ],
      "name": "permit",
      "outputs": [],
      "stateMutability": "nonpayable",
      "type": "function"
    },
    {
      "inputs": [],
      "name": "symbol",
      "outputs": [
        {
          "internalType": "string",
          "name": "",
          "type": "string"
        }
      ],
      "stateMutability": "view",
      "type": "function"
    },
    {
      "inputs": [],
      "name": "token",
      "outputs": [
        {
          "internalType": "address",
          "name": "",
          "type": "address"
        }
      ],
      "stateMutability": "view",
      "type": "function"
    },
    {
      "inputs": [],
      "name": "totalSupply",
      "outputs": [
        {
          "internalType": "uint256",
          "name": "",
          "type": "uint256"
        }
      ],
      "stateMutability": "view",
      "type": "function"
    },
    {
      "inputs": [
        {
          "internalType": "address",
          "name": "to",
          "type": "address"
        },
        {
          "internalType": "uint256",
          "name": "value",
          "type": "uint256"
        }
      ],
      "name": "transfer",
      "outputs": [
        {
          "internalType": "bool",
          "name": "",
          "type": "bool"
        }
      ],
      "stateMutability": "nonpayable",
      "type": "function"
    },
    {
      "inputs": [
        {
          "internalType": "address",
          "name": "from",
          "type": "address"
        },
        {
          "internalType": "address",
          "name": "to",
          "type": "address"
        },
        {
          "internalType": "uint256",
          "name": "value",
          "type": "uint256"
        }
      ],
      "name": "transferFrom",
      "outputs": [
        {
          "internalType": "bool",
          "name": "",
          "type": "bool"
        }
      ],
      "stateMutability": "nonpayable",
      "type": "function"
    },
    {
      "inputs": [
        {
          "internalType": "uint256",
          "name": "amount",
          "type": "uint256"
        }
      ],
      "name": "unwrap",
      "outputs": [
        {
          "internalType": "uint256",
          "name": "",
          "type": "uint256"
        }
      ],
      "stateMutability": "nonpayable",
      "type": "function"
    },
    {
      "inputs": [
        {
          "internalType": "uint256",
          "name": "amount",
          "type": "uint256"
        },
        {
          "internalType": "address",
          "name": "to",
          "type": "address"
        }
      ],
      "name": "unwrapTo",
      "outputs": [
        {
          "internalType": "uint256",
          "name": "",
          "type": "uint256"
        }
      ],
      "stateMutability": "nonpayable",
      "type": "function"
    },
    {
      "inputs": [
        {
          "internalType": "uint256",
          "name": "amount",
          "type": "uint256"
        }
      ],
      "name": "wrap",
      "outputs": [
        {
          "internalType": "uint256",
          "name": "",
          "type": "uint256"
        }
      ],
      "stateMutability": "nonpayable",
      "type": "function"
    },
    {
      "inputs": [
        {
          "internalType": "uint256",
          "name": "amount",
          "type": "uint256"
        },
        {
          "internalType": "address",
          "name": "to",
          "type": "address"
        }
      ],
      "name": "wrapTo",
      "outputs": [
        {
          "internalType": "uint256",
          "name": "",
          "type": "uint256"
        }
      ],
      "stateMutability": "nonpayable",
      "type": "function"
    }
  ],
  "bytecode": "0x60806040523480156200001157600080fd5b5060004690507f8b73c3c69bb8fe3d512ecc4cf759cc79239f7b179b0ffacaa9a75d522b39400f60006040518082805460018160011615610100020316600290048015620000995780601f106200007657610100808354040283529182019162000099565b820191906000526020600020905b81548152906001019060200180831162000084575b505060408051918290038220828201825260018352603160f81b602093840152815180840196909652858201527fc89efdaa54c0f20c7adf612882df0950f5a951637e0307cdcb4c672f298b8bc66060860152608085018690523060a0808701919091528151808703909101815260c08601808352815191840191909120600555600780546001600160a01b0319163390811790915563ad4d4e2960e01b9091529051909463ad4d4e29945060c4808201945090829003018186803b1580156200016257600080fd5b505afa15801562000177573d6000803e3d6000fd5b505050506040513d60208110156200018e57600080fd5b5051600880546001600160a01b0319166001600160a01b039283161790819055604080516306fdde0360e01b8152905191909216916306fdde03916004808301926000929190829003018186803b158015620001e957600080fd5b505afa158015620001fe573d6000803e3d6000fd5b505050506040513d6000823e601f3d908101601f1916820160405260208110156200022857600080fd5b81019080805160405193929190846401000000008211156200024957600080fd5b9083019060208201858111156200025f57600080fd5b82516401000000008111828201881017156200027a57600080fd5b82525081516020918201929091019080838360005b83811015620002a95781810151838201526020016200028f565b50505050905090810190601f168015620002d75780820380516001836020036101000a031916815260200191505b5060405250508151620002f292600092506020019062000595565b50600060405160200180806b02332bb902bb930b83832b2160a51b815250600c01828054600181600116156101000203166002900480156200036e5780601f106200034b5761010080835404028352918201916200036e565b820191906000526020600020905b81548152906001019060200180831162000359575b505060408051601f1981840301815291905280516200039893506000925060209091019062000595565b50600860009054906101000a90046001600160a01b03166001600160a01b03166395d89b416040518163ffffffff1660e01b815260040160006040518083038186803b158015620003e857600080fd5b505afa158015620003fd573d6000803e3d6000fd5b505050506040513d6000823e601f3d908101601f1916820160405260208110156200042757600080fd5b81019080805160405193929190846401000000008211156200044857600080fd5b9083019060208201858111156200045e57600080fd5b82516401000000008111828201881017156200047957600080fd5b82525081516020918201929091019080838360005b83811015620004a85781810151838201526020016200048e565b50505050905090810190601f168015620004d65780820380516001836020036101000a031916815260200191505b5060405250508151620004f192600192506020019062000595565b506001604051602001808061667760f01b81525060020182805460018160011615610100020316600290048015620005635780601f106200054057610100808354040283529182019162000563565b820191906000526020600020905b8154815290600101906020018083116200054e575b505060408051601f1981840301815291905280516200058d93506001925060209091019062000595565b505062000641565b828054600181600116156101000203166002900490600052602060002090601f016020900481019282620005cd576000855562000618565b82601f10620005e857805160ff191683800117855562000618565b8280016001018555821562000618579182015b8281111562000618578251825591602001919060010190620005fb565b50620006269291506200062a565b5090565b5b808211156200062657600081556001016200062b565b6113f980620006516000396000f3fe608060405234801561001057600080fd5b50600436106101825760003560e01c806370a08231116100d8578063c45a01551161008c578063de0e9a3e11610066578063de0e9a3e146104b4578063ea598cb0146104d1578063fc0c546a146104ee57610182565b8063c45a015514610411578063d505accf14610435578063dd62ed3e1461048657610182565b80637ecebe00116100bd5780637ecebe00146103b757806395d89b41146103dd578063a9059cbb146103e557610182565b806370a082311461036557806379cc67901461038b57610182565b806330adf81f1161013a57806340c10f191161011457806340c10f19146102ee57806342966c681461031c5780635dbd60591461033957610182565b806330adf81f146102c0578063313ce567146102c85780633644e515146102e657610182565b806318160ddd1161016b57806318160ddd1461024457806323b872dd1461025e578063265998501461029457610182565b806306fdde0314610187578063095ea7b314610204575b600080fd5b61018f6104f6565b6040805160208082528351818301528351919283929083019185019080838360005b838110156101c95781810151838201526020016101b1565b50505050905090810190601f1680156101f65780820380516001836020036101000a031916815260200191505b509250505060405180910390f35b6102306004803603604081101561021a57600080fd5b506001600160a01b038135169060200135610584565b604080519115158252519081900360200190f35b61024c61059b565b60408051918252519081900360200190f35b6102306004803603606081101561027457600080fd5b506001600160a01b038135811691602081013590911690604001356105a1565b61024c600480360360408110156102aa57600080fd5b50803590602001356001600160a01b0316610635565b61024c610762565b6102d0610786565b6040805160ff9092168252519081900360200190f35b61024c61078b565b61031a6004803603604081101561030457600080fd5b506001600160a01b038135169060200135610791565b005b61031a6004803603602081101561033257600080fd5b50356109ea565b61024c6004803603604081101561034f57600080fd5b50803590602001356001600160a01b0316610a2e565b61024c6004803603602081101561037b57600080fd5b50356001600160a01b0316610ad6565b61031a600480360360408110156103a157600080fd5b506001600160a01b038135169060200135610ae8565b61024c600480360360208110156103cd57600080fd5b50356001600160a01b0316610d41565b61018f610d53565b610230600480360360408110156103fb57600080fd5b506001600160a01b038135169060200135610dad565b610419610dba565b604080516001600160a01b039092168252519081900360200190f35b61031a600480360360e081101561044b57600080fd5b506001600160a01b03813581169160208101359091169060408101359060608101359060ff6080820135169060a08101359060c00135610dc9565b61024c6004803603604081101561049c57600080fd5b506001600160a01b0381358116916020013516610fd6565b61024c600480360360208110156104ca57600080fd5b5035610ff3565b61024c600480360360208110156104e757600080fd5b5035610fff565b61041961100b565b6000805460408051602060026001851615610100026000190190941693909304601f8101849004840282018401909252818152929183018282801561057c5780601f106105515761010080835404028352916020019161057c565b820191906000526020600020905b81548152906001019060200180831161055f57829003601f168201915b505050505081565b600061059133848461101a565b5060015b92915050565b60025481565b6001600160a01b038316600090815260046020908152604080832033845290915281205460001914610620576001600160a01b03841660009081526004602090815260408083203384529091529020546105fb908361107c565b6001600160a01b03851660009081526004602090815260408083203384529091529020555b61062b84848461108c565b5060019392505050565b600080831161068b576040805162461bcd60e51b815260206004820152601a60248201527f4665773a2063616e27742077726170207a65726f20746f6b656e000000000000604482015290519081900360640190fd5b610695828461113a565b600854604080516323b872dd60e01b81523360048201523060248201526044810186905290516001600160a01b03909216916323b872dd916064808201926020929091908290030181600087803b1580156106ef57600080fd5b505af1158015610703573d6000803e3d6000fd5b505050506040513d602081101561071957600080fd5b50506040805184815290516001600160a01b0384169133917feb5580a0908e96b78bdcb1a3c5638793b491a6073c3ff56061a069cb205817739181900360200190a35090919050565b7f6e71edae12b1b97f4d1f60370fef10105fa2faae0126114a169c64845d6126c981565b601281565b60055481565b600760009054906101000a90046001600160a01b03166001600160a01b031663f2f4eb266040518163ffffffff1660e01b815260040160206040518083038186803b1580156107df57600080fd5b505afa1580156107f3573d6000803e3d6000fd5b505050506040513d602081101561080957600080fd5b5051604080516355138f0d60e11b815233600482015290516001600160a01b039092169163aa271e1a91602480820192602092909190829003018186803b15801561085357600080fd5b505afa158015610867573d6000803e3d6000fd5b505050506040513d602081101561087d57600080fd5b50516108d0576040805162461bcd60e51b815260206004820152601f60248201527f436f72655265663a2043616c6c6572206973206e6f742061206d696e74657200604482015290519081900360640190fd5b600760009054906101000a90046001600160a01b03166001600160a01b0316635c975abb6040518163ffffffff1660e01b815260040160206040518083038186803b15801561091e57600080fd5b505afa158015610932573d6000803e3d6000fd5b505050506040513d602081101561094857600080fd5b50511561099c576040805162461bcd60e51b815260206004820152601960248201527f436f72655265663a2043616c6c65722069732070617573656400000000000000604482015290519081900360640190fd5b6109a6828261113a565b6040805182815290516001600160a01b0384169133917fbcad3d7d3dfccb90d49c6063bf70f828901fefc88937d90af74e58e6e55bc39d9181900360200190a35050565b6109f433826111c5565b604080518281529051339182917fdbdf9b8e4b75e75b162d151ec8fc7f0561cabab5fcccfa2600be62223e4300c49181900360200190a350565b6000808311610a6e5760405162461bcd60e51b81526004018080602001828103825260238152602001806113ca6023913960400191505060405180910390fd5b610a7833846111c5565b600854610a8f906001600160a01b03168385611256565b6040805184815290516001600160a01b0384169133917f12d6424519838e57637c6db9df31af32d7926ff0a53dd37007c191d0fe3028189181900360200190a35090919050565b60036020526000908152604090205481565b600760009054906101000a90046001600160a01b03166001600160a01b031663f2f4eb266040518163ffffffff1660e01b815260040160206040518083038186803b158015610b3657600080fd5b505afa158015610b4a573d6000803e3d6000fd5b505050506040513d6020811015610b6057600080fd5b50516040805163219a30a560e11b815233600482015290516001600160a01b0390921691634334614a91602480820192602092909190829003018186803b158015610baa57600080fd5b505afa158015610bbe573d6000803e3d6000fd5b505050506040513d6020811015610bd457600080fd5b5051610c27576040805162461bcd60e51b815260206004820152601f60248201527f436f72655265663a2043616c6c6572206973206e6f742061206275726e657200604482015290519081900360640190fd5b600760009054906101000a90046001600160a01b03166001600160a01b0316635c975abb6040518163ffffffff1660e01b815260040160206040518083038186803b158015610c7557600080fd5b505afa158015610c89573d6000803e3d6000fd5b505050506040513d6020811015610c9f57600080fd5b505115610cf3576040805162461bcd60e51b815260206004820152601960248201527f436f72655265663a2043616c6c65722069732070617573656400000000000000604482015290519081900360640190fd5b610cfd82826111c5565b6040805182815290516001600160a01b0384169133917fdbdf9b8e4b75e75b162d151ec8fc7f0561cabab5fcccfa2600be62223e4300c49181900360200190a35050565b60066020526000908152604090205481565b60018054604080516020600284861615610100026000190190941693909304601f8101849004840282018401909252818152929183018282801561057c5780601f106105515761010080835404028352916020019161057c565b600061059133848461108c565b6007546001600160a01b031681565b42841015610e1e576040805162461bcd60e51b815260206004820152600c60248201527f4665773a20455850495245440000000000000000000000000000000000000000604482015290519081900360640190fd5b6005546001600160a01b0380891660008181526006602090815260408083208054600180820190925582517f6e71edae12b1b97f4d1f60370fef10105fa2faae0126114a169c64845d6126c98186015280840196909652958d166060860152608085018c905260a085019590955260c08085018b90528151808603909101815260e08501825280519083012061190160f01b6101008601526101028501969096526101228085019690965280518085039096018652610142840180825286519683019690962095839052610162840180825286905260ff89166101828501526101a284018890526101c28401879052519193926101e280820193601f1981019281900390910190855afa158015610f39573d6000803e3d6000fd5b5050604051601f1901519150506001600160a01b03811615801590610f6f5750886001600160a01b0316816001600160a01b0316145b610fc0576040805162461bcd60e51b815260206004820152601660248201527f4665773a20494e56414c49445f5349474e415455524500000000000000000000604482015290519081900360640190fd5b610fcb89898961101a565b505050505050505050565b600460209081526000928352604080842090915290825290205481565b60006105958233610a2e565b60006105958233610635565b6008546001600160a01b031681565b6001600160a01b03808416600081815260046020908152604080832094871680845294825291829020859055815185815291517f8c5be1e5ebec7d5bd14f71427d1e84f3dd0314c0f7b2291e5b200ac8c7c3b9259281900390910190a3505050565b8082038281111561059557600080fd5b6001600160a01b0383166000908152600360205260409020546110af908261107c565b6001600160a01b0380851660009081526003602052604080822093909355908416815220546110de90826113b9565b6001600160a01b0380841660008181526003602090815260409182902094909455805185815290519193928716927fddf252ad1be2c89b69c2b068fc378daa952ba7f163c4a11628f55a4df523b3ef92918290030190a3505050565b60025461114790826113b9565b6002556001600160a01b03821660009081526003602052604090205461116d90826113b9565b6001600160a01b03831660008181526003602090815260408083209490945583518581529351929391927fddf252ad1be2c89b69c2b068fc378daa952ba7f163c4a11628f55a4df523b3ef9281900390910190a35050565b6001600160a01b0382166000908152600360205260409020546111e8908261107c565b6001600160a01b03831660009081526003602052604090205560025461120e908261107c565b6002556040805182815290516000916001600160a01b038516917fddf252ad1be2c89b69c2b068fc378daa952ba7f163c4a11628f55a4df523b3ef9181900360200190a35050565b604080516001600160a01b038481166024830152604480830185905283518084039091018152606490920183526020820180517bffffffffffffffffffffffffffffffffffffffffffffffffffffffff1663a9059cbb60e01b1781529251825160009485949389169392918291908083835b602083106112e75780518252601f1990920191602091820191016112c8565b6001836020036101000a0380198251168184511680821785525050505050509050019150506000604051808303816000865af19150503d8060008114611349576040519150601f19603f3d011682016040523d82523d6000602084013e61134e565b606091505b509150915081801561137c57508051158061137c575080806020019051602081101561137957600080fd5b50515b6113b2576040805162461bcd60e51b81526020600482015260026024820152612a2360f11b604482015290519081900360640190fd5b5050505050565b8082018281101561059557600080fdfe4665773a207a65726f20616d6f756e7420756e77726170206e6f7420616c6c6f776564a164736f6c6343000706000a",
  "linkReferences": {},
  "deployedLinkReferences": {}
}